{
  "_format": "hh-sol-artifact-1",
  "contractName": "PoolCommitment",
  "sourceName": "contracts/PoolCommitment.sol",
  "abi": [
    {
      "inputs": [
        {
          "internalType": "address",
          "name": "_usdcToken",
          "type": "address"
        }
      ],
      "stateMutability": "nonpayable",
      "type": "constructor"
    },
    {
      "inputs": [
        {
          "internalType": "address",
          "name": "owner",
          "type": "address"
        }
      ],
      "name": "OwnableInvalidOwner",
      "type": "error"
    },
    {
      "inputs": [
        {
          "internalType": "address",
          "name": "account",
          "type": "address"
        }
      ],
      "name": "OwnableUnauthorizedAccount",
      "type": "error"
    },
    {
      "inputs": [],
      "name": "ReentrancyGuardReentrantCall",
      "type": "error"
    },
    {
      "anonymous": false,
      "inputs": [
        {
          "indexed": false,
          "internalType": "string",
          "name": "poolId",
          "type": "string"
        },
        {
          "indexed": false,
          "internalType": "address",
          "name": "user",
          "type": "address"
        },
        {
          "indexed": false,
          "internalType": "uint256",
          "name": "amount",
          "type": "uint256"
        }
      ],
      "name": "CommitmentMade",
      "type": "event"
    },
    {
      "anonymous": false,
      "inputs": [
        {
          "indexed": false,
          "internalType": "string",
          "name": "poolId",
          "type": "string"
        },
        {
          "indexed": false,
          "internalType": "address",
          "name": "user",
          "type": "address"
        }
      ],
      "name": "CommitmentVerified",
      "type": "event"
    },
    {
      "anonymous": false,
      "inputs": [
        {
          "indexed": false,
          "internalType": "string",
          "name": "poolId",
          "type": "string"
        },
        {
          "indexed": false,
          "internalType": "address",
          "name": "recipient",
          "type": "address"
        },
        {
          "indexed": false,
          "internalType": "uint256",
          "name": "amount",
          "type": "uint256"
        }
      ],
      "name": "FundsWithdrawn",
      "type": "event"
    },
    {
      "anonymous": false,
      "inputs": [
        {
          "indexed": true,
          "internalType": "address",
          "name": "previousOwner",
          "type": "address"
        },
        {
          "indexed": true,
          "internalType": "address",
          "name": "newOwner",
          "type": "address"
        }
      ],
      "name": "OwnershipTransferred",
      "type": "event"
    },
    {
      "anonymous": false,
      "inputs": [
        {
          "indexed": false,
          "internalType": "string",
          "name": "poolId",
          "type": "string"
        },
        {
          "indexed": false,
          "internalType": "address",
          "name": "creator",
          "type": "address"
        },
        {
          "indexed": false,
          "internalType": "uint256",
          "name": "targetAmount",
          "type": "uint256"
        }
      ],
      "name": "PoolCreated",
      "type": "event"
    },
    {
      "inputs": [
        {
          "internalType": "string",
          "name": "_poolId",
          "type": "string"
        },
        {
          "internalType": "uint256",
          "name": "_amount",
          "type": "uint256"
        }
      ],
      "name": "commitToPool",
      "outputs": [],
      "stateMutability": "nonpayable",
      "type": "function"
    },
    {
      "inputs": [
        {
          "internalType": "string",
          "name": "",
          "type": "string"
        },
        {
          "internalType": "uint256",
          "name": "",
          "type": "uint256"
        }
      ],
      "name": "commitments",
      "outputs": [
        {
          "internalType": "address",
          "name": "user",
          "type": "address"
        },
        {
          "internalType": "uint256",
          "name": "amount",
          "type": "uint256"
        },
        {
          "internalType": "bool",
          "name": "verified",
          "type": "bool"
        }
      ],
      "stateMutability": "view",
      "type": "function"
    },
    {
      "inputs": [
        {
          "internalType": "string",
          "name": "_poolId",
          "type": "string"
        },
        {
          "internalType": "uint256",
          "name": "_targetAmount",
          "type": "uint256"
        }
      ],
      "name": "createPool",
      "outputs": [],
      "stateMutability": "nonpayable",
      "type": "function"
    },
    {
      "inputs": [
        {
          "internalType": "string",
          "name": "_poolId",
          "type": "string"
        }
      ],
      "name": "getPoolCommitments",
      "outputs": [
        {
          "components": [
            {
              "internalType": "address",
              "name": "user",
              "type": "address"
            },
            {
              "internalType": "uint256",
              "name": "amount",
              "type": "uint256"
            },
            {
              "internalType": "bool",
              "name": "verified",
              "type": "bool"
            }
          ],
          "internalType": "struct PoolCommitment.Commitment[]",
          "name": "",
          "type": "tuple[]"
        }
      ],
      "stateMutability": "view",
      "type": "function"
    },
    {
      "inputs": [
        {
          "internalType": "address",
          "name": "_user",
          "type": "address"
        },
        {
          "internalType": "string",
          "name": "_poolId",
          "type": "string"
        }
      ],
      "name": "getUserCommitment",
      "outputs": [
        {
          "internalType": "uint256",
          "name": "",
          "type": "uint256"
        }
      ],
      "stateMutability": "view",
      "type": "function"
    },
    {
      "inputs": [],
      "name": "owner",
      "outputs": [
        {
          "internalType": "address",
          "name": "",
          "type": "address"
        }
      ],
      "stateMutability": "view",
      "type": "function"
    },
    {
      "inputs": [
        {
          "internalType": "string",
          "name": "",
          "type": "string"
        }
      ],
      "name": "pools",
      "outputs": [
        {
          "internalType": "string",
          "name": "id",
          "type": "string"
        },
        {
          "internalType": "address",
          "name": "creator",
          "type": "address"
        },
        {
          "internalType": "uint256",
          "name": "targetAmount",
          "type": "uint256"
        },
        {
          "internalType": "uint256",
          "name": "raisedAmount",
          "type": "uint256"
        },
        {
          "internalType": "bool",
          "name": "active",
          "type": "bool"
        }
      ],
      "stateMutability": "view",
      "type": "function"
    },
    {
      "inputs": [],
      "name": "renounceOwnership",
      "outputs": [],
      "stateMutability": "nonpayable",
      "type": "function"
    },
    {
      "inputs": [
        {
          "internalType": "address",
          "name": "newOwner",
          "type": "address"
        }
      ],
      "name": "transferOwnership",
      "outputs": [],
      "stateMutability": "nonpayable",
      "type": "function"
    },
    {
      "inputs": [
        {
          "internalType": "address",
          "name": "_newUsdcToken",
          "type": "address"
        }
      ],
      "name": "updateUsdcToken",
      "outputs": [],
      "stateMutability": "nonpayable",
      "type": "function"
    },
    {
      "inputs": [],
      "name": "usdcToken",
      "outputs": [
        {
          "internalType": "contract IERC20",
          "name": "",
          "type": "address"
        }
      ],
      "stateMutability": "view",
      "type": "function"
    },
    {
      "inputs": [
        {
          "internalType": "address",
          "name": "",
          "type": "address"
        },
        {
          "internalType": "string",
          "name": "",
          "type": "string"
        }
      ],
      "name": "userCommitments",
      "outputs": [
        {
          "internalType": "uint256",
          "name": "",
          "type": "uint256"
        }
      ],
      "stateMutability": "view",
      "type": "function"
    },
    {
      "inputs": [
        {
          "internalType": "string",
          "name": "_poolId",
          "type": "string"
        },
        {
          "internalType": "uint256",
          "name": "_userIndex",
          "type": "uint256"
        }
      ],
      "name": "verifyCommitment",
      "outputs": [],
      "stateMutability": "nonpayable",
      "type": "function"
    },
    {
      "inputs": [
        {
          "internalType": "string",
          "name": "_poolId",
          "type": "string"
        }
      ],
      "name": "withdrawFunds",
      "outputs": [],
      "stateMutability": "nonpayable",
      "type": "function"
    }
  ],
  "bytecode": "0x608060405234801561001057600080fd5b506040516127bc3803806127bc8339818101604052810190610032919061022a565b33600073ffffffffffffffffffffffffffffffffffffffff168173ffffffffffffffffffffffffffffffffffffffff16036100a55760006040517f1e4fbdf700000000000000000000000000000000000000000000000000000000815260040161009c9190610266565b60405180910390fd5b6100b48161010360201b60201c565b506001808190555080600260006101000a81548173ffffffffffffffffffffffffffffffffffffffff021916908373ffffffffffffffffffffffffffffffffffffffff16021790555050610281565b60008060009054906101000a900473ffffffffffffffffffffffffffffffffffffffff169050816000806101000a81548173ffffffffffffffffffffffffffffffffffffffff021916908373ffffffffffffffffffffffffffffffffffffffff1602179055508173ffffffffffffffffffffffffffffffffffffffff168173ffffffffffffffffffffffffffffffffffffffff167f8be0079c531659141344cd1fd0a4f28419497f9722a3daafe3b4186f6b6457e060405160405180910390a35050565b600080fd5b600073ffffffffffffffffffffffffffffffffffffffff82169050919050565b60006101f7826101cc565b9050919050565b610207816101ec565b811461021257600080fd5b50565b600081519050610224816101fe565b92915050565b6000602082840312156102405761023f6101c7565b5b600061024e84828501610215565b91505092915050565b610260816101ec565b82525050565b600060208201905061027b6000830184610257565b92915050565b61252c806102906000396000f3fe608060405234801561001057600080fd5b50600436106100ea5760003560e01c80638da5cb5b1161008c578063cf844a6d11610066578063cf844a6d1461023b578063ef7cb27214610257578063f2fde38b14610287578063fe816d14146102a3576100ea565b80638da5cb5b146101b7578063924f5bc0146101d55780639d6f17a814610207576100ea565b8063150f1114116100c8578063150f11141461014557806326fc66ab14610175578063715018a61461019157806379012c0b1461019b576100ea565b806303b86b5a146100ef5780630798e5761461010b57806311eac85514610127575b600080fd5b61010960048036038101906101049190611651565b6102d3565b005b610125600480360381019061012091906116f8565b610645565b005b61012f610700565b60405161013c9190611784565b60405180910390f35b61015f600480360381019061015a9190611651565b610726565b60405161016c91906118d3565b60405180910390f35b61018f600480360381019061018a9190611921565b61081e565b005b610199610a43565b005b6101b560048036038101906101b09190611921565b610a57565b005b6101bf610c85565b6040516101cc919061198c565b60405180910390f35b6101ef60048036038101906101ea9190611921565b610cae565b6040516101fe939291906119c5565b60405180910390f35b610221600480360381019061021c9190611651565b610d38565b604051610232959493929190611a7b565b60405180910390f35b61025560048036038101906102509190611921565b610e39565b005b610271600480360381019061026c9190611ad5565b61122e565b60405161027e9190611b31565b60405180910390f35b6102a1600480360381019061029c91906116f8565b611269565b005b6102bd60048036038101906102b89190611ad5565b6112ef565b6040516102ca9190611b31565b60405180910390f35b6102db611355565b60006003826040516102ed9190611b88565b90815260200160405180910390209050600073ffffffffffffffffffffffffffffffffffffffff168160010160009054906101000a900473ffffffffffffffffffffffffffffffffffffffff1673ffffffffffffffffffffffffffffffffffffffff1603610390576040517f08c379a000000000000000000000000000000000000000000000000000000000815260040161038790611beb565b60405180910390fd5b8060010160009054906101000a900473ffffffffffffffffffffffffffffffffffffffff1673ffffffffffffffffffffffffffffffffffffffff163373ffffffffffffffffffffffffffffffffffffffff16148061042057503373ffffffffffffffffffffffffffffffffffffffff16610408610c85565b73ffffffffffffffffffffffffffffffffffffffff16145b61045f576040517f08c379a000000000000000000000000000000000000000000000000000000000815260040161045690611c57565b60405180910390fd5b60008160030154116104a6576040517f08c379a000000000000000000000000000000000000000000000000000000000815260040161049d90611cc3565b60405180910390fd5b6000816003015490506000826003018190555060008260040160006101000a81548160ff021916908315150217905550600260009054906101000a900473ffffffffffffffffffffffffffffffffffffffff1673ffffffffffffffffffffffffffffffffffffffff1663a9059cbb8360010160009054906101000a900473ffffffffffffffffffffffffffffffffffffffff16836040518363ffffffff1660e01b8152600401610557929190611ce3565b6020604051808303816000875af1158015610576573d6000803e3d6000fd5b505050506040513d601f19601f8201168201806040525081019061059a9190611d38565b6105d9576040517f08c379a00000000000000000000000000000000000000000000000000000000081526004016105d090611db1565b60405180910390fd5b7f04f1cd9c278166a000e1b082998f5bdbdf1b11c193aafbd7d1a90a0c9093a2ec838360010160009054906101000a900473ffffffffffffffffffffffffffffffffffffffff168360405161063093929190611dd1565b60405180910390a1505061064261139b565b50565b61064d6113a4565b600073ffffffffffffffffffffffffffffffffffffffff168173ffffffffffffffffffffffffffffffffffffffff16036106bc576040517f08c379a00000000000000000000000000000000000000000000000000000000081526004016106b390611e5b565b60405180910390fd5b80600260006101000a81548173ffffffffffffffffffffffffffffffffffffffff021916908373ffffffffffffffffffffffffffffffffffffffff16021790555050565b600260009054906101000a900473ffffffffffffffffffffffffffffffffffffffff1681565b60606004826040516107389190611b88565b9081526020016040518091039020805480602002602001604051908101604052809291908181526020016000905b8282101561081357838290600052602060002090600302016040518060600160405290816000820160009054906101000a900473ffffffffffffffffffffffffffffffffffffffff1673ffffffffffffffffffffffffffffffffffffffff1673ffffffffffffffffffffffffffffffffffffffff168152602001600182015481526020016002820160009054906101000a900460ff16151515158152505081526020019060010190610766565b505050509050919050565b600073ffffffffffffffffffffffffffffffffffffffff166003836040516108469190611b88565b908152602001604051809103902060010160009054906101000a900473ffffffffffffffffffffffffffffffffffffffff1673ffffffffffffffffffffffffffffffffffffffff16146108ce576040517f08c379a00000000000000000000000000000000000000000000000000000000081526004016108c590611ec7565b60405180910390fd5b60008111610911576040517f08c379a000000000000000000000000000000000000000000000000000000000815260040161090890611f59565b60405180910390fd5b6040518060a001604052808381526020013373ffffffffffffffffffffffffffffffffffffffff16815260200182815260200160008152602001600115158152506003836040516109629190611b88565b90815260200160405180910390206000820151816000019081610985919061217b565b5060208201518160010160006101000a81548173ffffffffffffffffffffffffffffffffffffffff021916908373ffffffffffffffffffffffffffffffffffffffff160217905550604082015181600201556060820151816003015560808201518160040160006101000a81548160ff0219169083151502179055509050507f134a2d5922a0f95967f604077661394523e302d18765968286f362d62aefa93b823383604051610a3793929190611dd1565b60405180910390a15050565b610a4b6113a4565b610a55600061142b565b565b610a5f6113a4565b600073ffffffffffffffffffffffffffffffffffffffff16600383604051610a879190611b88565b908152602001604051809103902060010160009054906101000a900473ffffffffffffffffffffffffffffffffffffffff1673ffffffffffffffffffffffffffffffffffffffff1603610b0f576040517f08c379a0000000000000000000000000000000000000000000000000000000008152600401610b0690611beb565b60405180910390fd5b600482604051610b1f9190611b88565b9081526020016040518091039020805490508110610b72576040517f08c379a0000000000000000000000000000000000000000000000000000000008152600401610b6990612299565b60405180910390fd5b6000600483604051610b849190611b88565b90815260200160405180910390208281548110610ba457610ba36122b9565b5b906000526020600020906003020190508060020160009054906101000a900460ff1615610c06576040517f08c379a0000000000000000000000000000000000000000000000000000000008152600401610bfd90612334565b60405180910390fd5b60018160020160006101000a81548160ff0219169083151502179055507fbaf3155b344df61314d7b25ba9d3fede23eeb0cfe8fc9303e46115fb369c82d8838260000160009054906101000a900473ffffffffffffffffffffffffffffffffffffffff16604051610c78929190612354565b60405180910390a1505050565b60008060009054906101000a900473ffffffffffffffffffffffffffffffffffffffff16905090565b6004828051602081018201805184825260208301602085012081835280955050505050508181548110610ce057600080fd5b9060005260206000209060030201600091509150508060000160009054906101000a900473ffffffffffffffffffffffffffffffffffffffff16908060010154908060020160009054906101000a900460ff16905083565b600381805160208101820180518482526020830160208501208183528095505050505050600091509050806000018054610d7190611fa8565b80601f0160208091040260200160405190810160405280929190818152602001828054610d9d90611fa8565b8015610dea5780601f10610dbf57610100808354040283529160200191610dea565b820191906000526020600020905b815481529060010190602001808311610dcd57829003601f168201915b5050505050908060010160009054906101000a900473ffffffffffffffffffffffffffffffffffffffff16908060020154908060030154908060040160009054906101000a900460ff16905085565b610e41611355565b6000600383604051610e539190611b88565b90815260200160405180910390209050600073ffffffffffffffffffffffffffffffffffffffff168160010160009054906101000a900473ffffffffffffffffffffffffffffffffffffffff1673ffffffffffffffffffffffffffffffffffffffff1603610ef6576040517f08c379a0000000000000000000000000000000000000000000000000000000008152600401610eed90611beb565b60405180910390fd5b8060040160009054906101000a900460ff16610f47576040517f08c379a0000000000000000000000000000000000000000000000000000000008152600401610f3e906123d0565b60405180910390fd5b60008211610f8a576040517f08c379a0000000000000000000000000000000000000000000000000000000008152600401610f819061243c565b60405180910390fd5b600260009054906101000a900473ffffffffffffffffffffffffffffffffffffffff1673ffffffffffffffffffffffffffffffffffffffff166323b872dd3330856040518463ffffffff1660e01b8152600401610fe99392919061245c565b6020604051808303816000875af1158015611008573d6000803e3d6000fd5b505050506040513d601f19601f8201168201806040525081019061102c9190611d38565b61106b576040517f08c379a000000000000000000000000000000000000000000000000000000000815260040161106290611db1565b60405180910390fd5b8181600301600082825461107f91906124c2565b925050819055506004836040516110969190611b88565b908152602001604051809103902060405180606001604052803373ffffffffffffffffffffffffffffffffffffffff16815260200184815260200160001515815250908060018154018082558091505060019003906000526020600020906003020160009091909190915060008201518160000160006101000a81548173ffffffffffffffffffffffffffffffffffffffff021916908373ffffffffffffffffffffffffffffffffffffffff1602179055506020820151816001015560408201518160020160006101000a81548160ff021916908315150217905550505081600560003373ffffffffffffffffffffffffffffffffffffffff1673ffffffffffffffffffffffffffffffffffffffff168152602001908152602001600020846040516111c29190611b88565b908152602001604051809103902060008282546111df91906124c2565b925050819055507fa8fbf6debae0a743d4699d6ca4b52f25a3124317374ece09a2622a88886d02ea83338460405161121993929190611dd1565b60405180910390a15061122a61139b565b5050565b600560205281600052604060002081805160208101820180518482526020830160208501208183528095505050505050600091509150505481565b6112716113a4565b600073ffffffffffffffffffffffffffffffffffffffff168173ffffffffffffffffffffffffffffffffffffffff16036112e35760006040517f1e4fbdf70000000000000000000000000000000000000000000000000000000081526004016112da919061198c565b60405180910390fd5b6112ec8161142b565b50565b6000600560008473ffffffffffffffffffffffffffffffffffffffff1673ffffffffffffffffffffffffffffffffffffffff1681526020019081526020016000208260405161133e9190611b88565b908152602001604051809103902054905092915050565b600260015403611391576040517f3ee5aeb500000000000000000000000000000000000000000000000000000000815260040160405180910390fd5b6002600181905550565b60018081905550565b6113ac6114ef565b73ffffffffffffffffffffffffffffffffffffffff166113ca610c85565b73ffffffffffffffffffffffffffffffffffffffff1614611429576113ed6114ef565b6040517f118cdaa7000000000000000000000000000000000000000000000000000000008152600401611420919061198c565b60405180910390fd5b565b60008060009054906101000a900473ffffffffffffffffffffffffffffffffffffffff169050816000806101000a81548173ffffffffffffffffffffffffffffffffffffffff021916908373ffffffffffffffffffffffffffffffffffffffff1602179055508173ffffffffffffffffffffffffffffffffffffffff168173ffffffffffffffffffffffffffffffffffffffff167f8be0079c531659141344cd1fd0a4f28419497f9722a3daafe3b4186f6b6457e060405160405180910390a35050565b600033905090565b6000604051905090565b600080fd5b600080fd5b600080fd5b600080fd5b6000601f19601f8301169050919050565b7f4e487b7100000000000000000000000000000000000000000000000000000000600052604160045260246000fd5b61155e82611515565b810181811067ffffffffffffffff8211171561157d5761157c611526565b5b80604052505050565b60006115906114f7565b905061159c8282611555565b919050565b600067ffffffffffffffff8211156115bc576115bb611526565b5b6115c582611515565b9050602081019050919050565b82818337600083830152505050565b60006115f46115ef846115a1565b611586565b9050828152602081018484840111156116105761160f611510565b5b61161b8482856115d2565b509392505050565b600082601f8301126116385761163761150b565b5b81356116488482602086016115e1565b91505092915050565b60006020828403121561166757611666611501565b5b600082013567ffffffffffffffff81111561168557611684611506565b5b61169184828501611623565b91505092915050565b600073ffffffffffffffffffffffffffffffffffffffff82169050919050565b60006116c58261169a565b9050919050565b6116d5816116ba565b81146116e057600080fd5b50565b6000813590506116f2816116cc565b92915050565b60006020828403121561170e5761170d611501565b5b600061171c848285016116e3565b91505092915050565b6000819050919050565b600061174a6117456117408461169a565b611725565b61169a565b9050919050565b600061175c8261172f565b9050919050565b600061176e82611751565b9050919050565b61177e81611763565b82525050565b60006020820190506117996000830184611775565b92915050565b600081519050919050565b600082825260208201905092915050565b6000819050602082019050919050565b6117d4816116ba565b82525050565b6000819050919050565b6117ed816117da565b82525050565b60008115159050919050565b611808816117f3565b82525050565b60608201600082015161182460008501826117cb565b50602082015161183760208501826117e4565b50604082015161184a60408501826117ff565b50505050565b600061185c838361180e565b60608301905092915050565b6000602082019050919050565b60006118808261179f565b61188a81856117aa565b9350611895836117bb565b8060005b838110156118c65781516118ad8882611850565b97506118b883611868565b925050600181019050611899565b5085935050505092915050565b600060208201905081810360008301526118ed8184611875565b905092915050565b6118fe816117da565b811461190957600080fd5b50565b60008135905061191b816118f5565b92915050565b6000806040838503121561193857611937611501565b5b600083013567ffffffffffffffff81111561195657611955611506565b5b61196285828601611623565b92505060206119738582860161190c565b9150509250929050565b611986816116ba565b82525050565b60006020820190506119a1600083018461197d565b92915050565b6119b0816117da565b82525050565b6119bf816117f3565b82525050565b60006060820190506119da600083018661197d565b6119e760208301856119a7565b6119f460408301846119b6565b949350505050565b600081519050919050565b600082825260208201905092915050565b60005b83811015611a36578082015181840152602081019050611a1b565b60008484015250505050565b6000611a4d826119fc565b611a578185611a07565b9350611a67818560208601611a18565b611a7081611515565b840191505092915050565b600060a0820190508181036000830152611a958188611a42565b9050611aa4602083018761197d565b611ab160408301866119a7565b611abe60608301856119a7565b611acb60808301846119b6565b9695505050505050565b60008060408385031215611aec57611aeb611501565b5b6000611afa858286016116e3565b925050602083013567ffffffffffffffff811115611b1b57611b1a611506565b5b611b2785828601611623565b9150509250929050565b6000602082019050611b4660008301846119a7565b92915050565b600081905092915050565b6000611b62826119fc565b611b6c8185611b4c565b9350611b7c818560208601611a18565b80840191505092915050565b6000611b948284611b57565b915081905092915050565b7f506f6f6c20646f6573206e6f7420657869737400000000000000000000000000600082015250565b6000611bd5601383611a07565b9150611be082611b9f565b602082019050919050565b60006020820190508181036000830152611c0481611bc8565b9050919050565b7f4e6f7420617574686f72697a6564000000000000000000000000000000000000600082015250565b6000611c41600e83611a07565b9150611c4c82611c0b565b602082019050919050565b60006020820190508181036000830152611c7081611c34565b9050919050565b7f4e6f2066756e647320746f207769746864726177000000000000000000000000600082015250565b6000611cad601483611a07565b9150611cb882611c77565b602082019050919050565b60006020820190508181036000830152611cdc81611ca0565b9050919050565b6000604082019050611cf8600083018561197d565b611d0560208301846119a7565b9392505050565b611d15816117f3565b8114611d2057600080fd5b50565b600081519050611d3281611d0c565b92915050565b600060208284031215611d4e57611d4d611501565b5b6000611d5c84828501611d23565b91505092915050565b7f55534443207472616e73666572206661696c6564000000000000000000000000600082015250565b6000611d9b601483611a07565b9150611da682611d65565b602082019050919050565b60006020820190508181036000830152611dca81611d8e565b9050919050565b60006060820190508181036000830152611deb8186611a42565b9050611dfa602083018561197d565b611e0760408301846119a7565b949350505050565b7f496e76616c696420746f6b656e20616464726573730000000000000000000000600082015250565b6000611e45601583611a07565b9150611e5082611e0f565b602082019050919050565b60006020820190508181036000830152611e7481611e38565b9050919050565b7f506f6f6c20616c72656164792065786973747300000000000000000000000000600082015250565b6000611eb1601383611a07565b9150611ebc82611e7b565b602082019050919050565b60006020820190508181036000830152611ee081611ea4565b9050919050565b7f54617267657420616d6f756e74206d757374206265206772656174657220746860008201527f616e203000000000000000000000000000000000000000000000000000000000602082015250565b6000611f43602483611a07565b9150611f4e82611ee7565b604082019050919050565b60006020820190508181036000830152611f7281611f36565b9050919050565b7f4e487b7100000000000000000000000000000000000000000000000000000000600052602260045260246000fd5b60006002820490506001821680611fc057607f821691505b602082108103611fd357611fd2611f79565b5b50919050565b60008190508160005260206000209050919050565b60006020601f8301049050919050565b600082821b905092915050565b60006008830261203b7fffffffffffffffffffffffffffffffffffffffffffffffffffffffffffffffff82611ffe565b6120458683611ffe565b95508019841693508086168417925050509392505050565b600061207861207361206e846117da565b611725565b6117da565b9050919050565b6000819050919050565b6120928361205d565b6120a661209e8261207f565b84845461200b565b825550505050565b600090565b6120bb6120ae565b6120c6818484612089565b505050565b5b818110156120ea576120df6000826120b3565b6001810190506120cc565b5050565b601f82111561212f5761210081611fd9565b61210984611fee565b81016020851015612118578190505b61212c61212485611fee565b8301826120cb565b50505b505050565b600082821c905092915050565b600061215260001984600802612134565b1980831691505092915050565b600061216b8383612141565b9150826002028217905092915050565b612184826119fc565b67ffffffffffffffff81111561219d5761219c611526565b5b6121a78254611fa8565b6121b28282856120ee565b600060209050601f8311600181146121e557600084156121d3578287015190505b6121dd858261215f565b865550612245565b601f1984166121f386611fd9565b60005b8281101561221b578489015182556001820191506020850194506020810190506121f6565b868310156122385784890151612234601f891682612141565b8355505b6001600288020188555050505b505050505050565b7f496e76616c6964207573657220696e6465780000000000000000000000000000600082015250565b6000612283601283611a07565b915061228e8261224d565b602082019050919050565b600060208201905081810360008301526122b281612276565b9050919050565b7f4e487b7100000000000000000000000000000000000000000000000000000000600052603260045260246000fd5b7f436f6d6d69746d656e7420616c72656164792076657269666965640000000000600082015250565b600061231e601b83611a07565b9150612329826122e8565b602082019050919050565b6000602082019050818103600083015261234d81612311565b9050919050565b6000604082019050818103600083015261236e8185611a42565b905061237d602083018461197d565b9392505050565b7f506f6f6c206973206e6f74206163746976650000000000000000000000000000600082015250565b60006123ba601283611a07565b91506123c582612384565b602082019050919050565b600060208201905081810360008301526123e9816123ad565b9050919050565b7f416d6f756e74206d7573742062652067726561746572207468616e2030000000600082015250565b6000612426601d83611a07565b9150612431826123f0565b602082019050919050565b6000602082019050818103600083015261245581612419565b9050919050565b6000606082019050612471600083018661197d565b61247e602083018561197d565b61248b60408301846119a7565b949350505050565b7f4e487b7100000000000000000000000000000000000000000000000000000000600052601160045260246000fd5b60006124cd826117da565b91506124d8836117da565b92508282019050808211156124f0576124ef612493565b5b9291505056fea26469706673582212203408c5c76abfc4935aeac0141534864f06d15728baba53b81eb5299869c13e8c64736f6c634300081c0033",
  "linkReferences": {},
  "deployedLinkReferences": {}
}