{
  "_format": "hh-sol-artifact-1",
  "contractName": "PoolCommitment",
  "sourceName": "contracts/PoolCommitment.sol",
  "abi": [
    {
      "inputs": [
        {
          "internalType": "address",
          "name": "_usdcToken",
          "type": "address"
        }
      ],
      "stateMutability": "nonpayable",
      "type": "constructor"
    },
    {
      "inputs": [
        {
          "internalType": "address",
          "name": "owner",
          "type": "address"
        }
      ],
      "name": "OwnableInvalidOwner",
      "type": "error"
    },
    {
      "inputs": [
        {
          "internalType": "address",
          "name": "account",
          "type": "address"
        }
      ],
      "name": "OwnableUnauthorizedAccount",
      "type": "error"
    },
    {
      "inputs": [],
      "name": "ReentrancyGuardReentrantCall",
      "type": "error"
    },
    {
      "anonymous": false,
      "inputs": [
        {
          "indexed": false,
          "internalType": "string",
          "name": "poolId",
          "type": "string"
        },
        {
          "indexed": false,
          "internalType": "address",
          "name": "user",
          "type": "address"
        },
        {
          "indexed": false,
          "internalType": "uint256",
          "name": "amount",
          "type": "uint256"
        }
      ],
      "name": "CommitmentMade",
      "type": "event"
    },
    {
      "anonymous": false,
      "inputs": [
        {
          "indexed": false,
          "internalType": "string",
          "name": "poolId",
          "type": "string"
        },
        {
          "indexed": false,
          "internalType": "address",
          "name": "user",
          "type": "address"
        }
      ],
      "name": "CommitmentVerified",
      "type": "event"
    },
    {
      "anonymous": false,
      "inputs": [
        {
          "indexed": false,
          "internalType": "string",
          "name": "poolId",
          "type": "string"
        },
        {
          "indexed": false,
          "internalType": "address",
          "name": "recipient",
          "type": "address"
        },
        {
          "indexed": false,
          "internalType": "uint256",
          "name": "amount",
          "type": "uint256"
        }
      ],
      "name": "FundsWithdrawn",
      "type": "event"
    },
    {
      "anonymous": false,
      "inputs": [
        {
          "indexed": true,
          "internalType": "address",
          "name": "previousOwner",
          "type": "address"
        },
        {
          "indexed": true,
          "internalType": "address",
          "name": "newOwner",
          "type": "address"
        }
      ],
      "name": "OwnershipTransferred",
      "type": "event"
    },
    {
      "anonymous": false,
      "inputs": [
        {
          "indexed": false,
          "internalType": "string",
          "name": "poolId",
          "type": "string"
        },
        {
          "indexed": false,
          "internalType": "address",
          "name": "creator",
          "type": "address"
        },
        {
          "indexed": false,
          "internalType": "uint256",
          "name": "targetAmount",
          "type": "uint256"
        }
      ],
      "name": "PoolCreated",
      "type": "event"
    },
    {
      "inputs": [
        {
          "internalType": "string",
          "name": "_poolId",
          "type": "string"
        },
        {
          "internalType": "uint256",
          "name": "_amount",
          "type": "uint256"
        }
      ],
      "name": "commitToPool",
      "outputs": [],
      "stateMutability": "nonpayable",
      "type": "function"
    },
    {
      "inputs": [
        {
          "internalType": "string",
          "name": "",
          "type": "string"
        },
        {
          "internalType": "uint256",
          "name": "",
          "type": "uint256"
        }
      ],
      "name": "commitments",
      "outputs": [
        {
          "internalType": "address",
          "name": "user",
          "type": "address"
        },
        {
          "internalType": "uint256",
          "name": "amount",
          "type": "uint256"
        },
        {
          "internalType": "bool",
          "name": "verified",
          "type": "bool"
        }
      ],
      "stateMutability": "view",
      "type": "function"
    },
    {
      "inputs": [
        {
          "internalType": "string",
          "name": "_poolId",
          "type": "string"
        },
        {
          "internalType": "uint256",
          "name": "_targetAmount",
          "type": "uint256"
        }
      ],
      "name": "createPool",
      "outputs": [],
      "stateMutability": "nonpayable",
      "type": "function"
    },
    {
      "inputs": [
        {
          "internalType": "string",
          "name": "_poolId",
          "type": "string"
        }
      ],
      "name": "getPoolCommitments",
      "outputs": [
        {
          "components": [
            {
              "internalType": "address",
              "name": "user",
              "type": "address"
            },
            {
              "internalType": "uint256",
              "name": "amount",
              "type": "uint256"
            },
            {
              "internalType": "bool",
              "name": "verified",
              "type": "bool"
            }
          ],
          "internalType": "struct PoolCommitment.Commitment[]",
          "name": "",
          "type": "tuple[]"
        }
      ],
      "stateMutability": "view",
      "type": "function"
    },
    {
      "inputs": [
        {
          "internalType": "address",
          "name": "_user",
          "type": "address"
        },
        {
          "internalType": "string",
          "name": "_poolId",
          "type": "string"
        }
      ],
      "name": "getUserCommitment",
      "outputs": [
        {
          "internalType": "uint256",
          "name": "",
          "type": "uint256"
        }
      ],
      "stateMutability": "view",
      "type": "function"
    },
    {
      "inputs": [],
      "name": "owner",
      "outputs": [
        {
          "internalType": "address",
          "name": "",
          "type": "address"
        }
      ],
      "stateMutability": "view",
      "type": "function"
    },
    {
      "inputs": [
        {
          "internalType": "string",
          "name": "",
          "type": "string"
        }
      ],
      "name": "pools",
      "outputs": [
        {
          "internalType": "string",
          "name": "id",
          "type": "string"
        },
        {
          "internalType": "address",
          "name": "creator",
          "type": "address"
        },
        {
          "internalType": "uint256",
          "name": "targetAmount",
          "type": "uint256"
        },
        {
          "internalType": "uint256",
          "name": "raisedAmount",
          "type": "uint256"
        },
        {
          "internalType": "bool",
          "name": "active",
          "type": "bool"
        }
      ],
      "stateMutability": "view",
      "type": "function"
    },
    {
      "inputs": [],
      "name": "renounceOwnership",
      "outputs": [],
      "stateMutability": "nonpayable",
      "type": "function"
    },
    {
      "inputs": [
        {
          "internalType": "address",
          "name": "newOwner",
          "type": "address"
        }
      ],
      "name": "transferOwnership",
      "outputs": [],
      "stateMutability": "nonpayable",
      "type": "function"
    },
    {
      "inputs": [
        {
          "internalType": "address",
          "name": "_newUsdcToken",
          "type": "address"
        }
      ],
      "name": "updateUsdcToken",
      "outputs": [],
      "stateMutability": "nonpayable",
      "type": "function"
    },
    {
      "inputs": [],
      "name": "usdcToken",
      "outputs": [
        {
          "internalType": "contract IERC20",
          "name": "",
          "type": "address"
        }
      ],
      "stateMutability": "view",
      "type": "function"
    },
    {
      "inputs": [
        {
          "internalType": "address",
          "name": "",
          "type": "address"
        },
        {
          "internalType": "string",
          "name": "",
          "type": "string"
        }
      ],
      "name": "userCommitments",
      "outputs": [
        {
          "internalType": "uint256",
          "name": "",
          "type": "uint256"
        }
      ],
      "stateMutability": "view",
      "type": "function"
    },
    {
      "inputs": [
        {
          "internalType": "string",
          "name": "_poolId",
          "type": "string"
        },
        {
          "internalType": "uint256",
          "name": "_userIndex",
          "type": "uint256"
        }
      ],
      "name": "verifyCommitment",
      "outputs": [],
      "stateMutability": "nonpayable",
      "type": "function"
    },
    {
      "inputs": [
        {
          "internalType": "string",
          "name": "_poolId",
          "type": "string"
        }
      ],
      "name": "withdrawFunds",
      "outputs": [],
      "stateMutability": "nonpayable",
      "type": "function"
    }
  ],
  "bytecode": "0x6080346100ca57601f61128038819003918201601f19168301916001600160401b038311848410176100cf578084926020946040528339810103126100ca57516001600160a01b0390818116908190036100ca5733156100b15760005460018060a01b0319903382821617600055604051933391167f8be0079c531659141344cd1fd0a4f28419497f9722a3daafe3b4186f6b6457e0600080a360018055600254161760025561119a90816100e68239f35b604051631e4fbdf760e01b815260006004820152602490fd5b600080fd5b634e487b7160e01b600052604160045260246000fdfe6080604052600436101561001257600080fd5b60003560e01c806303b86b5a14610c775780630798e57614610bf257806311eac85514610bc9578063150f111414610ab457806326fc66ab146107c5578063715018a61461076c57806379012c0b146105ed5780638da5cb5b146105c4578063924f5bc01461054f5780639d6f17a814610420578063cf844a6d1461017e578063ef7cb272146100b6578063f2fde38b146100f55763fe816d14146100b657600080fd5b346100f05760206100e76100c936610fe6565b6001600160a01b039091166000908152600584526040902090610f2f565b54604051908152f35b600080fd5b346100f05760203660031901126100f05761010e610ec4565b610116611029565b6001600160a01b0390811690811561016557600054826001600160601b0360a01b821617600055167f8be0079c531659141344cd1fd0a4f28419497f9722a3daafe3b4186f6b6457e0600080a3005b604051631e4fbdf760e01b815260006004820152602490fd5b346100f05761018c36610eda565b610194611141565b6040519180516020938481818501936101ae818387610f0c565b8101600381520301902060018060a01b03916101d1836001840154161515611081565b60ff600483015416156103e65784156103a1576000908684600254166064604051809581936323b872dd60e01b83523360048401523060248401528b60448401525af1801561039557610253936102346003928a95600091610368575b506110db565b0161024087825461111e565b9055604051809381928751928391610f0c565b81016004815203019020936040519161026b83610e2f565b33835281830192858452604081019660008852805468010000000000000000811015610352576102a091600182018155610f55565b91909161033c577fa8fbf6debae0a743d4699d6ca4b52f25a3124317374ece09a2622a88886d02ea976005956103029460029351166001600160601b0360a01b85541617845551600184015551151591019060ff801983541691151516179055565b3360005252610315604060002082610f2f565b61032083825461111e565b9055610333604051928392339084611055565b0390a160018055005b634e487b7160e01b600052600060045260246000fd5b634e487b7160e01b600052604160045260246000fd5b6103889150863d881161038e575b6103808183610e4b565b8101906110c3565b8b61022e565b503d610376565b6040513d6000823e3d90fd5b60405162461bcd60e51b815260048101879052601d60248201527f416d6f756e74206d7573742062652067726561746572207468616e20300000006044820152606490fd5b60405162461bcd60e51b8152600481018790526012602482015271506f6f6c206973206e6f742061637469766560701b6044820152606490fd5b346100f0576020806003193601126100f05760043567ffffffffffffffff81116100f05781610456610469923690600401610e6d565b8160405193828580945193849201610f0c565b810160038152030190209060405190600092805461048681610f87565b80855260019180831690811561053357506001146104fc575b506104af846104e3960385610e4b565b60018060a01b03908201541690600281015460ff60046003840154930154169260405196879660a0885260a0880190610fc1565b9486015260408501526060840152151560808301520390f35b945081600052826000206000905b86821061052057508401830194506104af61049f565b805486830186015290840190820161050a565b60ff19168587015250151560051b8401830194506104af61049f565b346100f057602061057761056236610eda565b92908160405193828580945193849201610f0c565b8101600481520301902080548210156100f05760609161059691610f55565b5060018060a01b038154169060ff600260018301549201541690604051928352602083015215156040820152f35b346100f05760003660031901126100f0576000546040516001600160a01b039091168152602090f35b346100f0576105fb36610eda565b610603611029565b60405182519160209261063f8486019161061e818685610f0c565b84016003815260018587828060a01b03978894030190200154161515611081565b60405184818751610651818387610f0c565b8101600481520301902054821015610732579061067d8461068c93604051809381928a51928391610f0c565b81016004815203019020610f55565b5060028101805460ff81166106ed57917fbaf3155b344df61314d7b25ba9d3fede23eeb0cfe8fc9303e46115fb369c82d895939160016106e4969460ff19161790555416604051938493604085526040850190610fc1565b918301520390a1005b60405162461bcd60e51b815260048101869052601b60248201527f436f6d6d69746d656e7420616c726561647920766572696669656400000000006044820152606490fd5b60405162461bcd60e51b8152600481018590526012602482015271092dcecc2d8d2c840eae6cae440d2dcc8caf60731b6044820152606490fd5b346100f05760003660031901126100f057610785611029565b600080546001600160a01b0319811682556001600160a01b03167f8be0079c531659141344cd1fd0a4f28419497f9722a3daafe3b4186f6b6457e08280a3005b346100f0576107d336610eda565b60405191805192600160208301946107ec818488610f0c565b82019160038352602081838060a01b039403019020015416610a79578115610a285760405167ffffffffffffffff9360a0820185811183821017610352576108619160209160405284845233828501528560408501526000606085015260016080850152604051809381928751928391610f0c565b810160038152030190209381518051918211610352576108818654610f87565b601f81116109e4575b50602090601f83116001146109525761093193837f134a2d5922a0f95967f604077661394523e302d18765968286f362d62aefa93b9894600494608094600092610947575b50508160011b916000199060031b1c19161784555b6001840160018060a01b036020830151166001600160601b0360a01b82541617905560408101516002850155606081015160038501550151151591019060ff801983541691151516179055565b610942604051928392339084611055565b0390a1005b015190508a806108cf565b90601f198316918760005260206000209260005b8181106109cc57508460049460809461093198947f134a2d5922a0f95967f604077661394523e302d18765968286f362d62aefa93b9c98600195106109b3575b505050811b0184556108e4565b015160001960f88460031b161c191690558a80806109a6565b92936020600181928786015181550195019301610966565b866000526020600020601f840160051c810160208510610a21575b601f830160051c82018110610a1557505061088a565b600081556001016109ff565b50806109ff565b60405162461bcd60e51b8152602060048201526024808201527f54617267657420616d6f756e74206d75737420626520677265617465722074686044820152630616e20360e41b6064820152608490fd5b60405162461bcd60e51b8152602060048201526013602482015272506f6f6c20616c72656164792065786973747360681b6044820152606490fd5b346100f0576020806003193601126100f05767ffffffffffffffff906004358281116100f05781610456610aec923690600401610e6d565b810160048152030190209182549081116103525760405190610b13838260051b0183610e4b565b8082528282018094600052836000206000915b838310610b875760408051878152865181890181905289928201908960005b828110610b525784840385f35b855180516001600160a01b03168552808301518584015260409081015115159085015294810194606090930192600101610b45565b600386600192604051610b9981610e2f565b848060a01b038654168152848601548382015260ff60028701541615156040820152815201920192019190610b26565b346100f05760003660031901126100f0576002546040516001600160a01b039091168152602090f35b346100f05760203660031901126100f057610c0b610ec4565b610c13611029565b6001600160a01b03168015610c3a576001600160601b0360a01b6002541617600255600080f35b60405162461bcd60e51b8152602060048201526015602482015274496e76616c696420746f6b656e206164647265737360581b6044820152606490fd5b346100f0576020806003193601126100f05760043567ffffffffffffffff81116100f057610ca9903690600401610e6d565b610cb1611141565b60405182818351610cc58183858801610f0c565b81016003815203019020906001820160018060a01b039081815416610ceb811515611081565b8033148015610e22575b15610dec5760038501948554958615610db0579160048892600080979695550160ff1981541690556044846002541691604051968793849263a9059cbb60e01b845260048401528a60248401525af1958615610395577f04f1cd9c278166a000e1b082998f5bdbdf1b11c193aafbd7d1a90a0c9093a2ec9661033394610d8492600092610d93575b50506110db565b54169260405193849384611055565b610da99250803d1061038e576103808183610e4b565b8880610d7d565b60405162461bcd60e51b81526004810189905260146024820152734e6f2066756e647320746f20776974686472617760601b6044820152606490fd5b60405162461bcd60e51b815260048101879052600e60248201526d139bdd08185d5d1a1bdc9a5e995960921b6044820152606490fd5b5033836000541614610cf5565b6060810190811067ffffffffffffffff82111761035257604052565b90601f8019910116810190811067ffffffffffffffff82111761035257604052565b81601f820112156100f05780359067ffffffffffffffff82116103525760405192610ea2601f8401601f191660200185610e4b565b828452602083830101116100f057816000926020809301838601378301015290565b600435906001600160a01b03821682036100f057565b60406003198201126100f0576004359067ffffffffffffffff82116100f057610f0591600401610e6d565b9060243590565b60005b838110610f1f5750506000910152565b8181015183820152602001610f0f565b602090610f49928260405194838680955193849201610f0c565b82019081520301902090565b8054821015610f71576000526003602060002091020190600090565b634e487b7160e01b600052603260045260246000fd5b90600182811c92168015610fb7575b6020831014610fa157565b634e487b7160e01b600052602260045260246000fd5b91607f1691610f96565b90602091610fda81518092818552858086019101610f0c565b601f01601f1916010190565b9060406003198301126100f0576004356001600160a01b03811681036100f057916024359067ffffffffffffffff82116100f05761102691600401610e6d565b90565b6000546001600160a01b0316330361103d57565b60405163118cdaa760e01b8152336004820152602490fd5b61106d60409295949395606083526060830190610fc1565b6001600160a01b0390951660208201520152565b1561108857565b60405162461bcd60e51b8152602060048201526013602482015272141bdbdb08191bd95cc81b9bdd08195e1a5cdd606a1b6044820152606490fd5b908160209103126100f0575180151581036100f05790565b156110e257565b60405162461bcd60e51b81526020600482015260146024820152731554d110c81d1c985b9cd9995c8819985a5b195960621b6044820152606490fd5b9190820180921161112b57565b634e487b7160e01b600052601160045260246000fd5b600260015414611152576002600155565b604051633ee5aeb560e01b8152600490fdfea2646970667358221220258f4b4a720f23a9bde685b004c733ab9578c1882be2a0f201a2331e624ec1e864736f6c63430008140033",
  "linkReferences": {},
  "deployedLinkReferences": {}
}